S01A00004B6579626F617264436F6E74726F6C6C65722E73726563B5
S113000012C01FC01FC01DC01CC01BC01AC019C015
S113001018C017C016C015C014C013C012C011C038
S113002010C00FC00EC011241FBECFEDCDBF20E005
S1130030A0E6B0E001C01D92A536B207E1F741D0B9
S113004063C0DECF1F920F920FB60F9211248F93CD
S1130050EF93FF93E0B3E370C89B11C0E11101C0BB
S1130060D99A8FEF87BBF0E0E05AFF4F808188BBBD
S1130070969A000082B312BA17BA18BA1AC086B395
S113008080936400969A000082B312BAE23049F079
S1130090E33061F0E13069F48091640080936100A1
S11300A008C080916400877083BF03C0809164009E
S11300B086BFFF91EF918F910F900FBE0F901F900D
S11300C0189585B7886085BF8BB780688BBF80B76C
S11300D0826180BF81B3806681BBD19AD89A939A9A
S11300E07894E0E6F0E081818823E9F380818F5FF2
S11300F08083D9982FEF89E698E121508040904081
S10F0100E1F700C00000EFCFF894FFCF3F
S9030000FC
